:100000000C945A000C9477000C9477000C947700B1
:100010000C9477000C9477000C9477000C94770084
:100020000C9477000C9477000C9477000C94770074
:100030000C9477000C9477000C9477000C94770064
:100040000C9477000C9477000C9477000C94770054
:100050000C9477000C9477000C9477000C94770044
:100060000C9421020C9477000C9477000C94770088
:100070000C9477000C9477000C9477000C94770024
:100080000C9477000C9477000C9477000C94770014
:100090000C9477000C9477000C9477000C94770004
:1000A0000C9477000C9477000C9477000C947700F4
:1000B0000C94770011241FBECFEFD8E0DEBFCDBF78
:1000C00011E0A0E0B1E0EAE0FAE002C005900D9294
:1000D000A830B107D9F721E0A8E0B1E001C01D9236
:1000E000A931B207E1F70E9485010C9403050C9435
:1000F000000087B18E7F87B988B1816088B987B1E8
:10010000826087B988B18D7F88B908953099FECF14
:10011000F89490E040E050E0BA0119C088B18260E4
:1001200088B985E08A95F1F70000440F551F661FD6
:10013000771F309B04C04F5F5F4F6F4F7F4F88B179
:100140008D7F88B985E08A95F1F700009F5F98312F
:1001500028F388B1826088B98AE08A95F1F700C0F7
:1001600088B18D7F88B98AE08A95F1F700C07894CC
:1001700067FD7F6FCB01BA010895CF92DF92EF92B6
:10018000FF92CF93C0E0C12CD12C760107C00E9412
:100190008600C60ED71EE81EF91ECF5FCE31B8F31B
:1001A000C701B6012EE130E040E050E00E94D504E6
:1001B000209308013093090140930A0150930B01E9
:1001C000CF91FF90EF90DF90CF900895CF92DF9284
:1001D000EF92FF920E948600C0900801D090090122
:1001E000E0900A01F0900B016C197D098E099F09BE
:1001F000C0900001D0900101E0900201F090030155
:100200000E942704A70196010E947D03FF90EF90B2
:10021000DF90CF9008958F929F92AF92BF92CF922E
:10022000DF92EF92FF92CF93DF93D82FC0E0C12CE3
:10023000D12C760111C00E94E6004B015C01C70180
:10024000B6010E942704A50194010E9411030E9497
:10025000EF036B017C01CF5FCD1768F32D2F30E0EA
:1002600040E050E0C701B6010E94D504CA01B901BF
:10027000DF91CF91FF90EF90DF90CF90BF90AF9044
:100280009F908F90089597B19F7C97B9880F809326
:10029000BA0085E48093BC000895F89480E40E943D
:1002A00043010E9479002FEF89E698E121508040B8
:1002B0009040E1F700C000000E94BD0040E45CE90E
:1002C00068E070E080E00E94B2028AB18C638AB973
:1002D0008BB1837C8BB984B1806284B985B18F7D09
:1002E00085B978940895282F30E0A0EDB7E00E94FA
:1002F000F40424EB30E040E050E00E94B304C90174
:100300008053984F0E940B0308950E944D018091E5
:100310001801823549F485E00E940B0170931701A2
:10032000609316011092180180911801833511F421
:1003300010921801209110013091110180910E014D
:1003400090910F012817390709F469C02091100115
:100350003091110180910E0190910F0128173907FA
:10036000C4F480910D0190E00196837090789923F8
:1003700024F401978C6F9F6F019680930D018091FB
:100380001001909111010196909311018093100139
:1003900017C080910D0190E00396837090789923A7
:1003A00024F401978C6F9F6F019680930D018091CB
:1003B0001001909111010197909311018093100108
:1003C00080911001909111018130924034F080E0D1
:1003D00092E090931101809310018091100190910F
:1003E0001101992324F410921101109210018BB184
:1003F000837C8BB92BB1E0910D01F0E0EC5FFE4FF7
:100400009081892F90E0880F991F880F991F822B68
:100410008BB98FE39FE10197F1F700C00000809155
:100420000C01882339F085B1806285B980E00E9493
:1004300073016DCF85B18F7D85B984EB0E94730107
:1004400066CF1F920F920FB60F9211242F938F93A6
:100450009F938091B900887F8038A1F028F480367E
:1004600069F0803759F071C0883A09F452C0883B6E
:1004700009F451C0803909F068C004C085EC80934C
:10048000BC0068C0809112018130B1F028F0823048
:1004900001F18430A1F139C08091BB008093180133
:1004A000833521F481E0809312012FC0803569F5F6
:1004B00084E08093120129C08091BB0090E0982FC6
:1004C0008827909314018093130182E08093120196
:1004D0001CC02091BB008091130190911401822BCC
:1004E0009093140180931301809113019091140152
:1004F00090930F0180930E011092120106C080911B
:10050000BB0080930C011092120185EC8093BC001B
:1005100021C0109215018091150181110AC08091AE
:100520001601909117019093BB0081E08093150113
:1005300008C080911601909117018093BB00109222
:10054000150185EC8093BC0005C01092150185EC67
:100550008093BC009F918F912F910F900FBE0F90B1
:100560001F90189594B1926094B95093870040936E
:100570008600E0E8F0E090819F739083882321F06B
:100580008081806C808305C0E0E8F0E08081806835
:100590008083E0E8F0E0808182608083E1E8F0E041
:1005A000108280818861808360347105E1F038F4C5
:1005B0006130710561F06830710579F026C0611510
:1005C00081E07807B1F061157440C9F01EC0E1E820
:1005D000F0E08081816080830895E1E8F0E080812F
:1005E000826080830895E1E8F0E080818360808309
:1005F0000895E1E8F0E08081846080830895E1E877
:10060000F0E08081856080830895E1E8F0E08081FA
:100610008160808308959093890080938800089575
:100620005058BB27AA270E9428030C9479040E94E3
:100630006B0438F00E94720420F039F49F3F19F4E3
:1006400026F40C9468040EF4E095E7FB0C94620425
:10065000E92F0E948A0458F3BA17620773078407C8
:10066000950720F079F4A6F50C94AC040EF4E0950F
:100670000B2EBA2FA02D0B01B90190010C01CA015C
:10068000A0011124FF27591B99F0593F50F4503E07
:1006900068F11A16F040A22F232F342F4427585FF9
:1006A000F3CF469537952795A795F0405395C9F711
:1006B0007EF41F16BA0B620B730B840BBAF09150C9
:1006C000A1F0FF0FBB1F661F771F881FC2F70EC068
:1006D000BA0F621F731F841F48F48795779567953B
:1006E000B795F7959E3F08F0B0CF9395880F08F027
:1006F0009927EE0F9795879508950E9491030C9482
:1007000079040E94720458F00E946B0440F029F4AE
:100710005F3F29F00C94620451110C94AD040C94C9
:1007200068040E948A0468F39923B1F3552391F376
:10073000951B550BBB27AA2762177307840738F050
:100740009F5F5F4F220F331F441FAA1FA9F335D0AD
:100750000E2E3AF0E0E832D091505040E695001C61
:10076000CAF72BD0FE2F29D0660F771F881FBB1F1B
:10077000261737074807AB07B0E809F0BB0B802DF9
:10078000BF01FF2793585F4F3AF09E3F510578F025
:100790000C9462040C94AD045F3FE4F3983ED4F3F0
:1007A000869577956795B795F7959F5FC9F7880FF9
:1007B000911D9695879597F90895E1E0660F771F4B
:1007C000881FBB1F621773078407BA0720F0621BDC
:1007D000730B840BBA0BEE1F88F7E09508950E9407
:1007E000F6036894B1110C94AD0408950E9492042C
:1007F00088F09F5798F0B92F9927B751B0F0E1F0E2
:10080000660F771F881F991F1AF0BA95C9F714C091
:10081000B13091F00E94AC04B1E008950C94AC04A6
:10082000672F782F8827B85F39F0B93FCCF38695CA
:1008300077956795B395D9F73EF490958095709527
:1008400061957F4F8F4F9F4F0895E89409C097FBA4
:100850003EF490958095709561957F4F8F4F9F4F97
:100860009923A9F0F92F96E9BB279395F6958795DB
:1008700077956795B795F111F8CFFAF4BB0F11F49E
:1008800060FF1BC06F5F7F4F8F4F9F4F16C0882345
:1008900011F096E911C0772321F09EE8872F762F7B
:1008A00005C0662371F096E8862F70E060E02AF0BC
:1008B0009A95660F771F881FDAF7880F96958795A8
:1008C00097F9089597F99F6780E870E060E00895D0
:1008D0009FEF80EC089500240A9416161706180658
:1008E0000906089500240A94121613061406050634
:1008F0000895092E0394000C11F4882352F0BB0FC5
:1009000040F4BF2B11F460FF04C06F5F7F4F8F4F27
:100910009F4F089557FD9058440F551F59F05F3F62
:1009200071F04795880F97FB991F61F09F3F79F011
:1009300087950895121613061406551FF2CF469593
:10094000F1DF08C0161617061806991FF1CF869515
:100950007105610508940895E894BB2766277727F9
:10096000CB0197F90895A1E21A2EAA1BBB1BFD012A
:100970000DC0AA1FBB1FEE1FFF1FA217B307E4077E
:10098000F50720F0A21BB30BE40BF50B661F771FD6
:10099000881F991F1A9469F76095709580959095B6
:1009A0009B01AC01BD01CF010895052E97FB1EF4FC
:1009B00000940E94EC0457FD07D00E94B30407FC8A
:1009C00003D04EF40C94EC0450954095309521954D
:1009D0003F4F4F4F5F4F089590958095709561956B
:1009E0007F4F8F4F9F4F0895A29FB001B39FC001CB
:1009F000A39F700D811D1124911DB29F700D811D4B
:0A0A00001124911D0895F894FFCF12
:080A0A000000D04203060C09B4
:00000001FF
