S012000050726F796563746F5F312E737265632D
S11300000C945A000C946C000C946C000C946C00CE
S11300100C946C000C946C000C946C000C946C00AC
S11300200C946C000C946C000C946C000C946C009C
S11300300C946C000C946C000C946C000C946C008C
S11300400C946C000C946C000C946C000C946C007C
S11300500C946C000C9417010C946C000C946C00C0
S11300600C9427010C946C000C946C000C946C00A0
S11300700C946C000C946C000C946C000C946C004C
S11300800C946C000C946C000C946C000C946C003C
S11300900C946C000C946C000C946C000C946C002C
S11300A00C946C000C946C000C946C000C946C001C
S11300B00C946C0011241FBECFEFD8E0DEBFCDBF7F
S11300C021E0A0E0B1E001C01D92A730B207E1F742
S11300D00E94F5000C9476010C940000ECE7F0E02B
S11300E0108217B818B88081806480838081806210
S11300F08083808186608083EAE7F0E010828081DB
S11301008760808380818068808380818860808329
S1130110808180648083089597B19F7C97B9880F0C
S11301208093BA0085E48093BC000895F8940E94FB
S11301306E0080E40E948C0085B1806285B985B12F
S11301408F7D85B9789408958AB184608AB98BB11A
S11301508B7F8BB92FEF80EE90E021508040904050
S1130160E1F700C000008BB184608BB920EA2A95C6
S1130170F1F78AB18B7F8AB908954A99FECF4A9BD9
S1130180FECF4A99FECF08954A9BFECF85ED8A950E
S1130190F1F7000099B1892F847092FD81E00895F0
S11301A01F93CF93DF9380E006C0E82FF0E0E05088
S11301B0FF4F10828F5F8530C0F310E010C0C12F55
S11301C0C695C695C695D0E0C050DF4F8881880F8C
S11301D088830E94C4009881892B88831F5F18320A
S11301E070F3DF91CF911F9108950E9496008FEFD5
S11301F08093020180910601823551F4F8940E94A3
S1130200A4000E94BD000E94D000789410920601C0
S1130210EAE7F0E08081806480832FEF84E39CE050
S1130220215080409040E1F700C00000E3CF1F92CE
S11302300F920FB60F9211248F93809179008093BF
S113024005018F910F900FBE0F901F9018951F926C
S11302500F920FB60F9211242F938F939F93809137
S1130260B900887F25B190E2922795B9803A79F157
S113027058F48037A1F018F4803689F02CC0803807
S113028091F0803981F027C0883BA9F018F4883AAE
S113029091F021C0803CB9F0883CA9F01CC085ECE9
S11302A08093BC001BC08091BB008093060185EC49
S11302B08093BC0013C0809102018093BB0085EC45
S11302C08093BC000BC085EC8093BC0007C085EC18
S11302D08093BC0003C085EC8093BC009F918F91F8
S11302E02F910F900FBE0F901F901895F894FFCF89
S9030000FC
