:100000000C9461000C947E000C947E000C947E0095
:100010000C947E000C947E000C947E000C947E0068
:100020000C947E000C947E000C947E000C947E0058
:100030000C947E000C947E000C947E000C947E0048
:100040000C947E000C9480010C94EF000C947E00C4
:100050000C947E000C943C010C947E000C947E0069
:100060000C947E000C947E000C947E000C947E0018
:100070000C947E000C947E000C947E000C947E0008
:100080000C947E000C947E000C947E000C947E00F8
:100090000C947E000C947E000C947E000C947E00E8
:1000A0000C947E000C947E000C947E000C947E00D8
:1000B0000C947E00C901D001D701E101EB01F501EB
:1000C000FF0111241FBECFEFD8E0DEBFCDBF11E08E
:1000D000A0E0B1E0E6E4F5E002C005900D92A231A7
:1000E000B107D9F721E0A2E1B1E001C01D92A6312C
:1000F000B207E1F70E94B3000C94A1020C94000037
:10010000ECE7F0E0108217B818B880818064808333
:10011000808180628083808186608083EAE7F0E06E
:100120001082808187608083808180688083808165
:100130008860808380818064808308958AB18C6F19
:100140008AB984B1836084B98BB183708BB985B16E
:100150008C7F85B910921401109212011092150132
:10016000109213010895F8940E949E000E941802B4
:100170000E94800040E060E080E40E94B1018CB504
:1001800080688CBD789480E091E00E943802809174
:1001900015010E944E0288E091E00E9438028AE038
:1001A00091E00E943802809113010E944E0288E083
:1001B00091E00E943802E7CF9BB1282F30E0220F58
:1001C000331F220F331F9370292B2BB995B19C7FBE
:1001D0008295869586958370892B85B908951F929F
:1001E0000F920FB60F9211242F933F934F935F936B
:1001F0006F937F938F939F93AF93BF93EF93FF93EF
:100200008091C600813331F48FEF809314010E94F6
:10021000DC0021C0803331F41092140180E00E9490
:10022000DC0019C0863339F48091150180931401E4
:100230000E94DC0010C0873339F480911301809351
:1002400014010E94DC0007C00E94310210921401C8
:1002500080E00E94DC00FF91EF91BF91AF919F91F0
:100260008F917F916F915F914F913F912F910F905F
:100270000FBE0F901F9018951F920F920FB60F92FE
:1002800011248F93EF93FF9380911201882319F02B
:100290008130B9F028C08091790080931501ECE796
:1002A000F0E010828081806480838081806280831E
:1002B000808187608083809112018F5F809312011B
:1002C00012C08091790080931301ECE7F0E0108276
:1002D0008081806480838081806280838081866069
:1002E000808310921201EAE7F0E0808180648083CD
:1002F000FF91EF918F910F900FBE0F901F90189567
:100300001F920F920FB60F9211242F933F934F938A
:100310005F936F937F938F939F93AF93BF93EF936D
:10032000FF938EB5813621F4809115018EBD08C0F2
:10033000823621F4809113018EBD02C00E94DC0040
:10034000FF91EF91BF91AF919F918F917F916F91AD
:100350005F914F913F912F910F900FBE0F901F9083
:100360001895E82F84FF55C084B18C6284B984B19C
:100370008F7E84B98CB580618CBDE7708E2F90E044
:100380008730910508F04EC0FC01E65AFF4F0C94EF
:1003900066028CB58C7F8CBD8DB581608DBD42C0F1
:1003A0008CB58C7F8CBD8DB58E7F8DBD3BC08CB5E3
:1003B00081608CBD8CB58D7F8CBD8DB581608DBD10
:1003C00031C08CB581608CBD8CB58D7F8CBD8DB5F9
:1003D0008E7F8DBD27C08CB58E7F8CBD8CB5826025
:1003E0008CBD8DB581608DBD1DC08CB58E7F8CBDE3
:1003F0008CB582608CBD8DB58E7F8DBD13C08CB5E4
:1004000081608CBD8CB582608CBD8DB58E7F8DBDBD
:1004100009C084B1806184B984B1837D84B98CB50D
:100420008F7E8CBD8CB5462B482B40644CBD089507
:100430008AB182608AB98AB18E7F8AB91092C0006F
:10044000E1ECF0E0808188698083E2ECF0E080817B
:100450008660808387E690E09093C5008093C40017
:1004600008959091C00095FFFCCF8093C600089539
:100470000F931F93CF93DF938C01C0E0D0E003C0B4
:100480000E9431022196F801EC0FFD1F808181113D
:10049000F7CFDF91CF911F910F910895CF93DF9305
:1004A00000D000D0CDB7DEB74AE0BE016F5F7F4F0E
:1004B00090E00E946C02CE0101960E9438020F90DB
:1004C0000F900F900F90DF91CF910895EE0FFF1FC7
:1004D0000590F491E02D0994BB274A3031F499231B
:1004E00022F4BDE2909581959F4F0C947802BB2732
:1004F000FB015527AA27880F991FAA1FA41710F0E0
:10050000A41B83955051B9F7A05DAA3308F0A95DEB
:10051000A193009779F7B111B1931192CB010C948B
:100520009102DC01FC01672F71917723E1F732978B
:1005300004C07C916D9370836291AE17BF07C8F3BE
:060540000895F894FFCFBE
:1005460041444320363A20000A0041444320373ACA
:02055600200083
:00000001FF
