S01500004C61626F7261746F72696F5F322E7372656300
S11300000C945A000C9477000C9477000C947700AD
S11300100C9477000C9477000C9477000C94770080
S11300200C9477000C9477000C9477000C94770070
S11300300C9477000C9477000C9477000C94770060
S11300400C9477000C9477000C9477000C94770050
S11300500C9477000C94A8010C9477000C9477000E
S11300600C9477000C9477000C9477000C94770030
S11300700C9477000C9477000C9477000C94770020
S11300800C9477000C9477000C9477000C94770010
S11300900C9477000C9477000C9477000C94770000
S11300A00C9477000C9477000C9477000C947700F0
S11300B00C94770011241FBECFEFD8E0DEBFCDBF74
S11300C011E0A0E0B1E0EEE2F5E002C005900D928F
S11300D0AA30B107D9F721E0AAE0B1E001C01D922E
S11300E0A931B207E1F70E948B010C9495020C949C
S11300F00000ECE7F0E010828081806480838081DE
S113010080628083808186608083EAE7F0E01082E9
S1130110808183608083808180688083808188601F
S11301208083808180648083089580FF04C09BB1B4
S113013090629BB903C09BB19F7D9BB981FF04C0B2
S11301409BB190649BB903C09BB19F7B9BB982FF19
S113015004C09BB190689BB903C09BB19F779BB9C6
S113016083FF04C095B1916095B903C095B19E7F9A
S113017095B984FF04C095B1926095B903C095B157
S11301809D7F95B985FF04C095B1946095B903C06E
S113019095B19B7F95B986FF04C095B1986095B9D8
S11301A003C095B1977F95B9882324F485B1806104
S11301B085B9089585B18F7E85B908959BB19B7FDC
S11301C09BB90E9495008BB180618BB98FE79EE348
S11301D00197F1F700C000008BB18F7E8BB90895B1
S11301E08AB18C6F8AB984B18F6384B987B1816015
S11301F087B98BB183708BB985B1807C85B988B19F
S11302008E7F88B980E00E9495002FEF89EF90E0FF
S1130210215080409040E1F700C0000080E30E943C
S1130220DE008FE19EE40197F1F700C0000080E357
S11302300E94DE008FE19EE40197F1F700C0000008
S113024080E30E94DE008FE19EE40197F1F700C095
S1130250000088E30E94DE008FE99FE00197F1F738
S113026000C0000088E00E94DE008FE99FE0019753
S1130270F1F700C0000081E00E94DE008FED9EE2F5
S11302800197F1F700C0000086E00E94DE008FE9CC
S11302909FE00197F1F700C000008CE00E94DE00AF
S11302A08FE99FE00197F1F700C0000008959BB12A
S11302B094609BB90E9495008BB180618BB98FE7E4
S11302C09EE30197F1F700C000008BB18F7E8BB9DC
S11302D008950F931F93CF93DF938C01C0E0D0E078
S11302E003C00E9457012196F801EC0FFD1F808185
S11302F08111F7CFDF91CF911F910F910895613054
S113030021F481580E94DE000895623019F481546A
S11303100E94DE000895F8940E94F0000E94790083
S113032061E081E00E947F0180E091E00E94690128
S113033062E081E00E947F0185E091E00E94690112
S11303401092110110921001109218017894FFCFAD
S11303501F920F920FB60F9211242F933F934F9336
S11303605F936F937F938F939F93AF93BF93EF9319
S1130370FF9380911101813021F0823009F449C04A
S113038091C04091790027EE33E0429FC001439F22
S1130390900D11246FEF73E00E946D0260931001C1
S11303A061E085E00E947F0190911001EAE0F1E0B4
S11303B08DEC989F812D1124282F26952695322F78
S11303C0330F330F230F392F321B232F205D20834C
S11303D02EE22183869586958695880F282F220FF5
S11303E0220F820F981B905D9283938386E584830A
S11303F01582CF010E946901ECE7F0E01082808150
S11304008064808380818062808380818760808330
S113041049C04091790027EE33E0429FC001439FD9
S1130420900D11246FEF73E00E946D026093180128
S113043062E085E00E947F0190911801E2E1F1E021
S11304408DEC989F812D1124282F26952695322FE7
S1130450330F330F230F392F321B232F205D2083BB
S11304602EE22183869586958695880F282F220F64
S1130470220F820F981B905D9283938386E5848379
S11304801582CF010E946901ECE7F0E010828081BF
S113049080648083808180628083808186608083A1
S11304A010921101809111018F5F80931101EAE78D
S11304B0F0E0808180648083FF91EF91BF91AF91E0
S11304C09F918F917F916F915F914F913F912F9168
S11304D00F900FBE0F901F90189597FB072E16F4E0
S11304E0009407D077FD09D00E94810207FC05D053
S11304F03EF4909581959F4F0895709561957F4F37
S11305000895AA1BBB1B51E107C0AA1FBB1FA61756
S1130510B70710F0A61BB70B881F991F5A95A9F7A8
S111052080959095BC01CD010895F894FFCF0D
S10D052E53313A200053323A200002
S9030000FC
