:100000000C9434000C9446000C9446000C9446006A
:100010000C9446000C9446000C9446000C94460048
:100020000C9446000C9446000C9446000C94460038
:100030000C9446000C9446000C9446000C94460028
:100040000C9446000C9446000C9446000C94460018
:100050000C9446000C9446000C9446000C94460008
:100060000C940B010C94460011241FBECFEFD8E076
:10007000DEBFCDBF21E0A0E0B1E001C01D92A830FD
:10008000B207E1F70E94FA000C94A7010C9400005B
:1000900097B19F7C97B9880F8093BA0085E48093CD
:1000A000BC000895F89480E30E94480068E070E086
:1000B00080E00E94670185B1806285B985B18F7D3E
:1000C00085B987B1866087B988B1826088B988B1FF
:1000D0008B7F88B978940895DC0190E005C0FD011C
:1000E000E90FF11D10829F5F9530C8F3F89487B136
:1000F000816087B988B18E7F88B92FEF89EF90E052
:10010000215080409040E1F700C0000088B181603C
:1001100088B920EA2A95F1F787B18E7F87B988B12F
:10012000816088B920E23EE4309B03C02150310950
:10013000D9F7232B19F4789480E0089520E23EE467
:10014000309903C021503109D9F7232B19F4789441
:1001500080E0089520E23EE4309B03C02150310945
:10016000D9F7232B61F5789480E0089520E23EE4EE
:10017000309903C021503109D9F7232B19F4789411
:1001800080E0089580EA8A95F1F7309B06C0FD0172
:10019000E50FF11D8081892B8083969511F45F5FB7
:1001A00090E820E23EE4309B03C021503109D9F7AA
:1001B000232B19F4789480E008954F5F03C040E04A
:1001C00050E090E8483290F278943C9111962C914E
:1001D000119712969C91129713968C911397230F57
:1001E000920F890F14969C91891711F080E0089561
:1001F00081E008950E94520080910701823531F418
:1002000080E091E00E946C0010920701809106014D
:100210000E94A501F1CF1F920F920FB60F921124E9
:100220008F938091B900887F803A09F443C058F4D5
:100230008037A1F018F4803689F040C0803891F002
:10024000803981F03BC0883B49F118F4883A31F19C
:1002500035C0803C59F1883C49F130C085EC809331
:10026000BC002FC08091050181110AC08091BB00A4
:1002700080930701863571F481E0809305010AC0FF
:1002800080910501813031F48091BB00809306019B
:100290001092050185EC8093BC0013C0809102018F
:1002A0008093BB0085EC8093BC000BC085EC8093F1
:1002B000BC0007C085EC8093BC0003C085EC809334
:1002C000BC008F910F900FBE0F901F9018959AB1A0
:1002D00090649AB994B59F7394BD882321F084B536
:1002E000806C84BD03C084B5806884BD84B58360A0
:1002F00084BD15BC60347105C1F038F461307105FE
:1003000061F06830710569F01CC0611581E0780703
:1003100081F06115744089F014C085B5816085BD98
:10032000089585B5826085BD089585B5836085BDD6
:10033000089585B5846085BD089585B5856085BDC2
:10034000089585B5816085BD089587BD0895F894A9
:02035000FFCFDD
:00000001FF
