S00C00004C6162332E73726563D6
S11300000C943B000C9458000C9458000C94580029
S11300100C9458000C9458000C9458000C945800FC
S11300200C9458000C9458000C9458000C945800EC
S11300300C9458000C9458000C9458000C945800DC
S11300400C9458000C9458000C94E8000C9458003C
S11300500C9458000C9458000C9458000C945800BC
S11300600C9458000C94580033013A0141014B019F
S113007055015F01690111241FBECFEFD8E0DEBF37
S1130080CDBF11E0A0E0B1E0E2E2F4E002C00590EF
S11300900D92A832B107D9F721E0A8E2B1E001C07E
S11300A01D92AA33B207E1F70E948F000C940F024D
S11300B00C940000F894E1E6F0E080E8808384E0AA
S11300C080838AB18C6F8AB98BB183708BB984B108
S11300D0836084B985B18C7F85B940E060E081E5B7
S11300E00E9418010E94860185B1846085B98CB58F
S11300F080648CBD78940895282F30E0220F331F3C
S1130100220F331F82958695869583709BB19370D9
S1130110292B2BB995B19C7F892B85B908950E9411
S11301205A0085B18B7F85B981E60E947F0180E00A
S11301300E947F010E948101809329014AE06EE2BE
S113014071E090E00E94E50180E091E00E94A60148
S11301508EE291E00E94A60185B1846085B985B1E3
S11301608B7F85B982E60E947F0180E00E947F0137
S11301700E948101809329014AE06EE271E090E0DF
S11301800E94E50182E191E00E94A6018EE291E0E5
S11301900E94A60186E291E00E94A60185B18460D6
S11301A085B980913801882309F4BBCF85B18B7F51
S11301B085B9109238018AE291E00E94BF018093D0
S11301C039010E947C00809139010E947F01A9CFEE
S11301D01F920F920FB60F9211248F939F93EF9358
S11301E0FF938091C6008A3021F08D3011F08E3259
S11301F061F4E0912801F0E0E65DFE4F1082109278
S1130200280181E0809338010AC090912801E92FE8
S1130210F0E0E65DFE4F80839F5F90932801FF919D
S1130220EF919F918F910F900FBE0F901F90189593
S1130230E82F84FF55C084B18C6284B984B18F7E69
S113024084B985B1846085B98CB580618CBDE77053
S11302508E2F90E08730910508F04BC0FC01EC5CD8
S1130260FF4F0C94B9018CB58C7F8CBD8DB581602A
S11302708DBD3FC08CB58C7F8CBD8DB58E7F8DBD03
S113028038C08CB581608CBD8CB58D7F8CBD8DB52F
S113029081608DBD2EC08CB581608CBD8CB58D7F89
S11302A08CBD8DB58E7F8DBD24C08CB58E7F8CBDED
S11302B08CB582608CBD8DB581608DBD1AC08CB546
S11302C08E7F8CBD8CB582608CBD8DB58E7F8DBDCF
S11302D010C08CB583608CBD8DB58E7F8DBD09C07B
S11302E084B1806184B984B1837D84B98CB58F7EF7
S11302F08CBD8CB5462B482B40644CBD08958EBDF7
S113030008950DB407FEFDCF8EB508958AB18E7F92
S11303108AB98AB182608AB9E0ECF0E01082808107
S11303208260808388E98093C10086E08093C20064
S11303308CE090E09093C5008093C4000895909160
S1130340C00095FFFCCF8093C60008950F931F93C0
S1130350CF938C01C0E003C00E949F01CF5FF801DE
S1130360EC0FF11D80818111F7CFCF911F910F9177
S11303700895EE0FFF1F0590F491E02D0994FC0100
S113038088279927E89421912032E9F3293010F045
S11303902E30C8F32B3241F02D3239F4689404C066
S11303A00E94DD01820F911D219120532A30C0F358
S11303B01EF4909581959F4F08957AE0979F902D14
S11303C0879F802D910D11240895BB27FB0155278C
S11303D0AA27880F991FAA1FA41710F0A41B83959E
S11303E05051B9F7A05DAA3308F0A95DA193009715
S11303F079F7B111B1931192CB010C94FF01DC0197
S1130400FC01672F71917723E1F7329704C07C9147
S11304106D9370836291AE17BF07C8F30895F89483
S1050420FFCF08
S1130422506F74656E63696F6D6574726F20313AD3
S113043220002020506F74656E63696F6D6574725D
S10B04426F20323A20000A0089
S9030000FC
