:100000000C945A000C946C000C946C000C942A0113
:100010000C94BD000C946C000C946C000C946C005F
:100020000C946C000C946C000C946C000C946C00A0
:100030000C946C000C946C000C946C000C946C0090
:100040000C9454010C946C000C946C000C946C0097
:100050000C946C000C946C000C946C000C946C0070
:100060000C946C000C946C000C946C000C946C0060
:100070000C946C000C946C000C946C000C946C0050
:100080000C946C000C946C000C946C000C946C0040
:100090000C946C000C946C000C946C000C946C0030
:1000A0000C946C000C946C000C946C000C946C0020
:1000B0000C946C0011241FBECFEFD8E0DEBFCDBF83
:1000C00021E0A0E0B1E001C01D92AA30B207E1F743
:1000D0000E94BA000C94D6010C940000F89410927F
:1000E000C10017B887B18F6087B98FEF88B998B111
:1000F000907F98B98AB91BB8E8E6F0E090819260E9
:100100009083ACE6B0E09C9190639C9384B984B1F9
:100110008F7E84B915B885B1806185B98081816091
:100120008083EBE6F0E080818061808314BC15BCA5
:1001300086E086BD85B5836085BDEEE6F0E0808112
:1001400081608083109209011092050110920401D0
:1001500085E090E0909303018093020110920101E9
:1001600010920001109206011092070110920801EE
:10017000789408950E946E00FFCF1F920F920FB6E1
:100180000F9211248F939F93809109018F5F809329
:100190000901813009F055C0349929C080910001CE
:1001A000813009F050C0809106018F5F8093060175
:1001B0008F3030F498B1907F8F70892B88B943C00D
:1001C0001092000188B18F6088B985B1807F85B9B0
:1001D0008CED8BB91092010185E090E090930301C2
:1001E0008093020110920601109207012CC03599EC
:1001F0002AC080910001813031F5809107018F5F25
:10020000809307018F3030F495B1907F8F70892BE8
:1002100085B919C01092000185B18F6085B988B188
:10022000807F88B981E48BB91092010185E090E06C
:10023000909303018093020110920601109207012E
:1002400002C0109209019F918F910F900FBE0F90E5
:100250001F9018951F920F920FB60F9211248F9333
:100260009F93809108018F5F80930801813099F4FA
:100270001C9913C08093010185B1909107019F7073
:10028000807F892B85B988B1909106019F70807F0E
:10029000892B88B902C0109208019F918F910F900D
:1002A0000FBE0F901F9018951F920F920FB60F92CE
:1002B00011242F938F939F9386E086BD8091040134
:1002C000909105010196909305018093040180911E
:1002D000040190910501883E934008F45FC010929C
:1002E00005011092040180910101813009F056C08E
:1002F00080910201909103018530910561F489EBB1
:100300008BB98091020190910301019790930301B1
:100310008093020143C08430910561F481E78BB979
:1003200080910201909103010197909303018093C2
:10033000020134C08330910561F489ED8BB980915D
:1003400002019091030101979093030180930201B0
:1003500025C08230910561F48CED8BB9809102014A
:10036000909103010197909303018093020116C0BD
:100370008130910561F481E48BB980910201909103
:1003800003010197909303018093020107C0892B19
:1003900029F48DEE8BB981E0809300019F918F91BC
:1003A0002F910F900FBE0F901F901895F894FFCFCC
:00000001FF
