:100000000C945A000C946F000C946F000C949A009E
:100010000C94C6000C946F000C946F000C946F004D
:100020000C946F000C946F000C946F000C946F0094
:100030000C946F000C946F000C946F000C946F0084
:100040000C946F000C946F000C946F000C946F0074
:100050000C946F000C946F000C946F000C946F0064
:100060000C946F000C946F000C946F000C946F0054
:100070000C946F000C946F000C946F000C946F0044
:100080000C946F000C946F000C946F000C946F0034
:100090000C946F000C946F000C946F000C946F0024
:1000A0000C946F000C946F000C946F000C946F0014
:1000B0000C946F0011241FBECFEFD8E0DEBFCDBF80
:1000C00011E0A0E0B1E0E6EAF2E002C005900D9296
:1000D000AC30B107D9F70E9493000C9451010C94F5
:1000E000000087B1847C87B984B18F7D84B984B1E5
:1000F000886084B985B1877F85B988B18B6388B9F9
:1001000085B1806185B9E8E6F0E080818360808315
:10011000EBE6F0E0808180618083ECE6F0E08081B6
:100120008B6380830895F8940E9471000E941E01E1
:100130007894FFCF1F920F920FB60F9211242F9336
:100140003F934F935F936F937F938F939F93AF935F
:10015000BF93EF93FF931C9908C095B188E089275E
:1001600085B980E091E00E943E01FF91EF91BF913F
:10017000AF919F918F917F916F915F914F913F913F
:100180002F910F900FBE0F901F9018951F920F92F6
:100190000FB60F9211242F933F934F935F936F935A
:1001A0007F938F939F93AF93BF93EF93FF93309978
:1001B00009C095B188E0892785B982E091E00E9465
:1001C0003E012BC0319909C095B188E0892785B9D6
:1001D00084E091E00E943E0120C0339909C095B1AE
:1001E00088E0892785B986E091E00E943E0115C02C
:1001F000349909C095B188E0892785B988E091E0F4
:100200000E943E010AC0359908C095B188E089274F
:1002100085B98AE091E00E943E01FF91EF91BF9184
:10022000AF919F918F917F916F915F914F913F918E
:100230002F910F900FBE0F901F9018958AB18E7F4F
:100240008AB98AB182608AB9E0ECF0E010828081DC
:100250008260808388E98093C10086E08093C20039
:100260008FEC90E09093C5008093C4000895909126
:10027000C00095FFFCCF8093C60008950F931F9395
:10028000CF938C01C0E003C00E943701CF5FF8011B
:10029000EC0FF11D80818111F7CFCF911F910F914C
:0602A0000895F894FFCF61
:0C02A60049004400410052006100620069
:00000001FF
